:0C00000036C0FECFFDCFFCCFFBCFFACF07
:10000C00F9CFF8CFF7CFF6CFF5CFF4CFF3CFF2CFC0
:10001C00F1CFF0CFEFCFEECFEDCF57454C434F4D57
:10002C004520544F00454D5220434C554200496EDB
:10003C0076616C696420496E7075740001002D4EF8
:10004C00414E00494E4600000B006001260009009D
:10005C006B0131000E0074013A000100820148006E
:10006C000000F894EE27ECBBF1E0FBBFEBBFE5BF63
:10007C008DE0A2E0BB27ED938A95E9F780E094E050
:10008C00A0E6ED930197E9F7E4E5F0E08591959111
:10009C00009761F0A591B59105901590BF01F00105
:1000AC0005900D920197E1F7FB01F0CFEFE5EDBF65
:1000BC00E4E0EEBFC0E6D1E023C11A931A2FA89A50
:1000CC00A9985ED1D0C064D1A89AA99A59D1CBC0B5
:1000DC007ED18D01D801EC91E03029F0AC91F3DFA9
:1000EC000F5F1F4FF7CF099119910895A8E3E5DF32
:1000FC00ACE0E3DF50D1A6E0E0DFA2E0DEDF089564
:10010C00EFEFE7BBE4BBEFE0E1BB0895909A919869
:10011C0092989398849B05C040D18499FECFE7E3D5
:10012C000895859B05C039D18599FECFE8E30895E4
:10013C00869B05C032D18699FECFE9E30895879B53
:10014C0005C02BD18799FECFEFE208959098919A34
:10015C0092989398849B05C020D18499FECFE4E3B8
:10016C000895859B05C019D18599FECFE5E30895C7
:10017C00869B05C012D18699FECFE6E30895879B36
:10018C0005C00BD18799FECFEAE20895909891981B
:10019C00929A9398849B05C000D18499FECFE1E399
:1001AC000895859B05C0F9D08599FECFE2E30895AB
:1001BC00869B05C0F2D08699FECFE3E30895879B1A
:1001CC0005C0EBD08799FECFEDE2089590989198F9
:1001DC009298939A849B05C0E0D08499FECFE3E477
:1001EC000895859B05C0D9D08599FECFE0E308958D
:1001FC00869B05C0D2D08699FECFEDE30895879BF0
:10020C0005C0CBD08799FECFEBE20895EEE60895BA
:10021C001A931EE61E3619F479DF1E2FFBCFA12F81
:10022C0052DFA4E1B0E022D1E12F1DC0B1D01A32CF
:10023C0031F01B3221F01F3211F01D3211F4E1E0CC
:10024C0012C0E0E010C0A4D0103310F01A3308F044
:10025C0002C0E1E008C0E0E006C09AD0133411F40B
:10026C00E1E001C0E0E019910895AFD09D011FECD1
:10027C00A12F23DF022E032A11F4A0E324DF022E88
:10028C00032A81F0D901EAE0F0E0D4D0E05DAE2F92
:10029C001ADF1150D901EAE0F0E0C7D09F01A12F7D
:1002AC000CDFEDCF99D0249608958DD03A2F4E8146
:1002BC005F8100E010E03B3229F472D0EA0FFB1FA3
:1002CC008F0116C03D3231F4E885F985E41BF50B3E
:1002DC008F010EC03A3221F463D08FD08F0108C049
:1002EC003F3221F45DD0A1D08F0102C00885198561
:1002FC00D801BBDF6FD02A96089502DFF7DE089590
:10030C0010E052D00EE6F9DF46D0A0E8D6DE2197F9
:10031C007FDFE883A88197DFE03051F0103021F4C3
:10032C00F90147D09F0103C0FA0143D0AF0125C0AA
:10033C00A8817CDFE03069F0113041F42CD0A0E8CA
:10034C00BCDEA4E7B1E0C4DE2196E1CF088111E068
:10035C0014C0A88182DFE03029F010E01CD0A0E8A6
:10036C00ACDE0AC0A881AD3341F43A932A935A9378
:10037C004A93A02F9ADF18D00EE62196C8CFFFCF54
:10038C0018BBA5E0B0E072D0A898A5E0B0E06EC0B4
:10039C001A931A2F0895A1E090CEAAE0B0E066C09F
:1003AC00FA01A885B985089520E030E040E050E0DE
:1003BC000895AAE0B0E021D0DF01E881F0E0F097E9
:1003CC00EA0FFB1F08955A934A933A932A931A9370
:1003DC000A9308955D814C813B812A8119810881A2
:1003EC000895F195E195F0400895FA9FF02DEB9F5B
:1003FC00F00DEA9FE02DF10D08952AD0F6DF0EF4F2
:10040C00F0DF08950024112490E1AA0FBB1F001CFB
:10041C00111C0E1A1F0A18F40E0E1F1E01C0A1602B
:10042C009A9599F7FD01D001089512D0EBDF0EF4E7
:10043C00D8DF0895E894B7FF04C0B195A195B040FA
:10044C006894F7FDCEDFDEDFFD010EF4CADF089500
:10045C00E894F7FF02C0C5DF6894B7FF06C0B195FA
:10046C00A195B04000F8039400FA0895109639F065
:10047C00A89580EA9FE00197F1F71197C9F70895C5
:00000001FF
